:0A02EE00C0F9A4B0999282F8809044
:0902E400010913010B03010C11C7
:10000E00E4F5A01202D47590FF2093197F0A7E00AA
:10001E001202B220930CE51070047F0180027F0063
:10002E008F103093FD20901B7F0A7E001202B220AB
:10003E00900EB28CE50A70047F0180027F008F0A59
:10004E003090FD20911BE50A60177F0A7E00120298
:10005E00B2209106E50A6002050D209104E50A70B2
:10006E00F920921BE50A60177F0A7E001202B22069
:10007E009206E50A6002050F209204E50A70F9E582
:10008E000E643C7004F50E050DE50D643C7004F530
:10009E000D050FE50F64187004F50F050CE51070D3
:1000AE00031200BFE5107003020017120155020083
:0100BE00172A
:10027700AFF07E0075F00A8475F00A84ABF075A0C4
:100287000274EE2FF582EE3402F583E493F5807F56
:10029700011202B275A0017E00AF0374EE2FF58242
:0B02A700EE3402F583E493F5807F0144
:0B02B200EF1FAC0670011E4C70F6221E
:1000BF00E50E75F00A84AFF07E00E50E75F00A8448
:1000CF0075F00A84ABF07A0075A0801202A275A0B9
:1000DF004074EE2BF582EA3402F583E493F5807FCA
:1000EF00017E001202B275A0207580BF7F017E00D5
:1000FF001202B2E50D75F00A84AFF07E00E50D75C2
:10010F00F00A8475F00A84ABF075A0101202A27584
:10011F00A00874EE2BF582EA3402F583E493F580A0
:10012F007F017E001202B275A0047580BF7F017E31
:10013F00001202B2E50F75F00A84E50F1202777F05
:06014F00507E000202B226
:10015500E50C75F00A84AFF07E00E50C75F00A84B5
:1001650075F00A84ABF07A0075A0801202A275A022
:100175004074EE2BF582EA3402F583E493F5807F33
:10018500017E001202B275A0207580BF7F017E003E
:100195001202B2E50B75F00A84AFF07E00E50B752F
:1001A500F00A8475F00A84ABF075A0101202A275EE
:1001B500A00874EE2BF582EA3402F583E493F5800A
:1001C5007F017E001202B275A0047580BF7F017E9B
:1001D500001202B2E50975F00A84E5091202777F7B
:0601E500507E000202B290
:1002D400758901758C3C758AB0D2AFD2A9D28C22B3
:03000B000202BD31
:1002BD00C0E0758C3C758AB00508E50864147004BF
:0702CD00050EF508D0E03238
:030000000201EB0F
:0C01EB00787FE4F6D8FD75811002023226
:1001F70002000EE493A3F8E493A34003F68001F210
:1002070008DFF48029E493A3F85407240CC8C33308
:10021700C4540F4420C8834004F456800146F6DFD7
:10022700E4800B01020408102040809002E4E47E81
:10023700019360BCA3FF543F30E509541FFEE493CC
:10024700A360010ECF54C025E060A840B8E493A393
:10025700FAE493A3F8E493A3C8C582C8CAC583CABE
:10026700F0A3C8C582C8CAC583CADFE9DEE780BE76
:0102ED000010
:00000001FF
