:1009A800252E3567002573006D4100437572726509
:0509B8006E74A3BA00FB
:1009D200023207D0024A00C8093743757272656E47
:0309E200743A0064
:10096200E4FDFCC3ED9FEE6480F8EC6480985008CF
:08097200000DBD00010C80EB3B
:01097A00225A
:10051B00E4F535F536F54EF54FD2A7C2A730B3FD4E
:10052B00D2B4AF90E54F25E02440F8760008A6073B
:10053B007F327E00120962054FE54F7002054EC3F4
:10054B009405E54E940040D1E4F550F551E4F54E99
:10055B00F54FC374049551FFE49550FEC3E54F9FCF
:10056B00E54E9E5050AF4FEF25E02442F8E6FC08D5
:10057B00E6FDEF25E02440F8E6FE08E6FFD39DEE0E
:10058B009C40288E558F56E54F25E02442F8E6FE19
:10059B0008E6FFAD4FED25E02440F8A60608A607B8
:1005AB00ED25E02442F8A65508A656054FE54F70F9
:1005BB00A1054E809D0551E551700205506404451F
:1005CB0050708A754E00754F01E54F25E02440F8B9
:1005DB00E6FE08E62536F536EE3535F535054FE5FD
:1005EB004F7002054E6404454E70DEAE35AF367C5F
:1005FB00007D031203838E4C8F4D7F017E00120909
:10060B0062C2B4750BFF750C09750DA8854C0E8570
:10061B004D0F7B007A00792612006A750BFF750C63
:10062B0009750DAD750EFF750F097510B07B007A4E
:06063B0000792602006AAE
:1007F500D2B00000C2B20000C2B1E4FEEEC3942044
:1008050074809480500BD2B00000C2B000000E80FE
:10081500EBD2B1E4FEEEC39F500BD2B00000C2B0E4
:1008250000000E80F0D2B00000D2B20000D2B100BC
:0308350000D2B03E
:01083800229D
:1008E500D2B00000C2B20000D2B1E4FEEEC39F5008
:1008F5000BD2B00000C2B000000E80F0D2B00000F4
:0A090500D2B20000D2B10000D2B05F
:01090F0022C5
:10091000D2B00000C2B20000C2B1E4FEEEC39F50EC
:100920000BD2B00000C2B000000E80F0D2B00000C8
:0A093000D2B20000D2B10000D2B034
:01093A00229A
:10064100C2B5C3E533954BF531E532954AF530AE88
:100651004AAF4BAB07AA06E4C39BFFE49AFE7401C1
:100661009400FDE49400FCE4FB7A01F9F8120839E6
:100671008F52AE4AAF4BAB07AA06E4C39BFFE49A85
:10068100FE74019400FDE49400FCE4FB7A01F9F8A6
:10069100120839AF038F23AE30AF31AB07AA06E49E
:1006A100C39BFFE49AFE74019400FDE49400FCE412
:1006B100FB7A01F9F81208398F34AE30AF31AB074C
:1006C100AA06E4C39BFFE49AFE74019400FDE4943E
:1006D10000FCE4FB7A01F9F8120839AF038F2275A7
:1006E100890185528C85238AD2AFD2A9D2ABD28C13
:1006F100D28ED2A8D288C2A7C2B4C2B7C2A0C2A1A8
:10070100C2A2C2A6D2A67F0F1207F57FE87E03021E
:0207110009627B
:10079F0012064112087D7F0A1209BD120A187BFF4B
:1007AF007A0979B3E4FDFF802012051BD3E54D9440
:1007BF0080E54C94004017E54D2480FF1208E57B3F
:1007CF00007A0079267D017F051208B880DBC3749B
:1007DF0080954DFF1209107B007A0079267D017FED
:0607EF00051208B880C3EA
:03000B0002099354
:1009930030B509C2B585348C85228A32D2B58552E9
:0509A3008C85238A325F
:100A08007590FFC2A5D2A6C2A400D2A4E590332255
:1009E600120A0840FBC2A5C2A6D2A48F9000C2A4D8
:0109F60022DE
:1009F700120A0840FBD2A5C2A6D2A48F9000C2A4B7
:010A070022CC
:0A0A18007F011209E67F050209BD07
:1008B8008F088D098B0A8A0B890CAB0AAA0BA90C25
:1008C80012036AFB6016AD09AF0812097B74012593
:0D08D8000CF50CE4350BF50B050880DE2255
:10097B00AE07AC03ED7005EE24808003EE24C0FFC0
:08098B001209E6AF040209F7AE
:10087D007F381209E67F051209BD7F381209E67F20
:10088D00051209BD7F381209E67F051209BD7F38B3
:10089D001209E67F081209E67F011209E67F0612AA
:0B08AD0009E61F1209BD7F0C0209E6DE
:03000300DFFE22FB
:1009BD00AE07AF061EEF600C7FF51200037FF51238
:0509CD00000380EE2292
:03000000020713E1
:0C071300787FE4F6D8FD75815602075A85
:10036A00BB010689828A83E0225002E722BBFE0291
:09037A00E32289828A83E49322C4
:10038300BC000BBE0029EF8DF084FFADF022E4CC5E
:10039300F875F008EF2FFFEE33FEEC33FCEE9DEC27
:1003A300984005FCEE9DFE0FD5F0E9E4CEFD22ED6D
:1003B300F8F5F0EE8420D21CFEADF075F008EF2FB7
:1003C300FFED33FD4007985006D5F0F222C398FDA8
:0503D3000FD5F0EA2245
:10083900C2D5E830E70FB2D5E4C39BFBE49AFAE4EA
:1008490099F9E498F8EC30E717B2D512086F120459
:1008590053E4C39BFBE49AFAE499F9E498F880031A
:1008690012045330D50DE4C39FFFE49EFEE49DFDC1
:04087900E49CFC22DD
:10000E00E517240BF8E60517227808300702780B5F
:10001E00E475F0011204E502036A2000EB7F2ED294
:10002E00008018EF540F2490D43440D4FF30040BCA
:10003E00EF24BFB41A0050032461FFE518600215C7
:10004E0018051BE51B7002051A30070D7808E475BC
:10005E00F0011204E5EF02040502093B7403D20716
:10006E008003E4C207F5178B088A09890AE4F5189C
:10007E00F51AF51BE51860077F2012004980F5750B
:10008E0019FFC201C200C202C203C205C206C208E3
:10009E00120017FF700D3007057F0012005AAF1BBC
:1000AE00AE1A22B4255FC2D5C204120017FF24D0A7
:1000BE00B40A00501A75F00A781830D50508B6FF44
:1000CE000106C6A426F620D5047002D20380D924D8
:1000DE00CFB41A00EF5004C2E5D20402025AD20184
:1000EE0080C6D20080C0D20280BCD2D580BAD205E2
:1000FE0080B47F201200492002077401B518004019
:10010E00F112000EFF120049020082D208D20680C0
:10011E009512000EFB12000EFA12000EF94A4B70E9
:10012E0006792B7A037BFF20022EE518602A7E00CB
:10013E008E827583001203D860060EEE651970F07C
:10014E00C2D5EBC0E0EAC0E0E9C0E0EE1202A1D0F9
:10015E00E0F9D0E0FAD0E0FB12036AFF60AAEBC030
:10016E00E0EAC0E0E9C0E0120049D0E02401F9D095
:10017E00E03400FAD0E0FBE5190460DCD519D98033
:10018E00877BFF7A02799DD202809C79108002795A
:10019E0008C206C2088008D2D5790A8004790AC23C
:1001AE00D5E519047002F519E4FAFDFEFF12000EF2
:1001BE00FC7B0820011312000EFD7B1030000A128A
:1001CE00000EFE12000EFF7B20EC3382D592D5502E
:1001DE0013C3E43000069FFFE49EFEE42001039D5E
:1001EE00FDE49CFCE4CBF8C201EC700CCFCECDCC80
:1001FE00E824F8F870F38017C3EF33FFEE33FEED0B
:10020E0033FDEC33FCEB33FB994002FB0FD8E9EBEB
:10021E00300105F8D0E0C448B201C0E00AEC4D4E02
:10022E004F78207B0070C2EAB5190040BCC0E012C6
:10023E0002A3D0F0D0E0200104C4C0E0C4B201C0DB
:10024E00F0120032D0F0D5F0EB0200821204F5016C
:10025E001F5301995800F04C00EC42019D4F01A52F
:0F026E004401A54901054301AB55018F46018F9E
:10027D0045018F47034B5000F42D00F82E011B2B29
:10028D0000FC2301192003342A00B4480000011397
:10029D003F3F3F00790AA2D5200314300509B9105C
:1002AD00020404B9080104A2D5200602500104205D
:1002BD0002689202B518005034C0E07F2030031957
:1002CD007F30A20272067205500F1202FAC202C2EC
:1002DD0006C205C2087F30800F300503E9C0E01269
:1002ED000049300503D0E0F9D0E0B518CC30051742
:1002FD007F30B9100C1200497F583004077F788089
:10030D0003B908031200493002057F2D0200497F11
:10031D00202008F87F2B2006F322920280CF286E32
:10032D00756C6C2900D20112000E3001F8C20178F3
:10033D001830D50108F60200B42D5043495812006B
:10034D000E2403B405004001E49003469312003AD5
:0D035D00743A12003AD20375180402019997
:10071F0002079FE493A3F8E493A34003F68001F24A
:10072F0008DFF48029E493A3F85407240CC8C333DB
:10073F00C4540F4420C8834004F456800146F6DFAA
:10074F00E4800B01020408102040809009D2E47E5F
:10075F00019360BCA3FF543F30E509541FFEE4939F
:10076F00A360010ECF54C025E060A840B8E493A366
:10077F00FAE493A3F8E493A3C8C582C8CAC583CA91
:10078F00F0A3C8C582C8CAC583CADFE9DEE780BE49
:0109E5000011
:1003D800BB010CE58229F582E5833AF583E02250DA
:1003E80006E92582F8E622BBFE06E92582F8E22224
:0D03F800E58229F582E5833AF583E493223E
:10040500BB010689828A83F0225002F722BBFE01D6
:02041500F322D0
:1004170075F008758200EF2FFFEE33FECD33CDCC9C
:1004270033CCC58233C5829BED9AEC99E58298401F
:100437000CF582EE9BFEED9AFDEC99FC0FD5F0D6FC
:10044700E4CEFBE4CDFAE4CCF9A88222B800C1B926
:100457000059BA002DEC8BF084CFCECDFCE5F0CB64
:10046700F97818EF2FFFEE33FEED33FDEC33FCEB9D
:1004770033FB10D703994004EB99FB0FD8E5E4F958
:10048700FA227818EF2FFFEE33FEED33FDEC33FC45
:10049700C933C910D7059BE99A4007EC9BFCE99A39
:1004A700F90FD8E0E4C9FAE4CCFB2275F010EF2F7E
:1004B700FFEE33FEED33FDCC33CCC833C810D7077E
:1004C7009BEC9AE899400AED9BFDEC9AFCE899F8B9
:0E04D7000FD5F0DAE4CDFBE4CCFAE4C8F9224C
:1004E500FAE6FB0808E6F925F0F618E6CA3AF62218
:1004F500D083D082F8E4937012740193700DA3A396
:1005050093F8740193F5828883E4737402936860A9
:06051500EFA3A3A380DFA9
:10093B00EFB40A07740D120946740A309811A8997E
:10094B00B8130CC2983098FDA899C298B811F6301C
:07095B0099FDC299F59922F4
:00000001FF
